S014000030325F4C45445F426C696E6B2E737265632B
S1130000F0240020A9020000A5020000A5020000BF
S113001000000000000000000000000000000000DC
S1130020000000000000000000000000A502000025
S11300300000000000000000A5020000A50200006E
S1130040A5020000A5020000A5020000A502000010
S1130050A5020000A5020000A5020000A502000000
S1130060A5020000A5020000A5020000A5020000F0
S113007055050000A5020000A5020000A50200002D
S1130080A5020000A5020000A5020000A5020000D0
S1130090A5020000A5020000A5020000A5020000C0
S11300A0A5020000A5020000A5020000A5020000B0
S11300B00000000010B5064C2378002B07D1054B37
S11300C0002B02D0044800E000BF0123237010BDC0
S11300D03C0400200000000048240000084B10B538
S11300E0002B03D00749084800E000BF0748036815
S11300F0002B00D110BD064B002BFBD09847F9E72D
S113010000000000400400204824000048240000AF
S113011000000000F8B5184B9847184B8022920253
S11301201A6017490A6056215A5C012422435A5422
S11301301B395A5C0F26B24302252A435A545720CE
S11301401A5C22431A54585C0F221040202738436B
S113015058545020195C214319541838195CB14380
S1130160294319545125595D0C435C55195C0A40C7
S11301703A431A54F8BDC0468501000000440041CA
S113018014440041354A136A28210B431362344B4B
S11301901A6A34490A401A621A6A02210A431A6224
S11301A0314A0131FF31916030495160304A9A82BD
S11301B09A8A02210A439A821A00D3689B07FCD5C3
S11301C0294B0222FF329A602A4A5A601A00537855
S11301D0DB09FCD1284A53681E218B431C390B438D
S11301E053608222D201204B5A801D4AD368DB0619
S11301F0FCD502221A4B9A841A00D368DB06FCD57C
S11302001E4A174BDA621A00D368DB06FCD51C4B76
S11302101A6813498B6A920E92021A4803401343D8
S11302208B620A00D368DB06FCD50D4A938C164911
S11302300B439384D3681B06FCD5D3685B06F9D5BE
S1130240124A094B5A601A005378DB09FCD1064B59
S11302500F4A5A800F4A5A807047C0460004004033
S113026000080040FFFCFFFF000C004002060900EC
S11302700C07000001050B0000400041B905FF7D9B
S113028024608000FF03FFFF0608000000070B0046
S11302901740000015420000BFF35F8F01380028AB
S11302A0FAD17047FEE70000F8B52A4A2A4B9A4271
S11302B011D01A00294B9A420DD2294A03339B1AB2
S11302C09B0801339B000022234822498C58845008
S11302D004329A42FAD1234A234B9A420AD2D34394
S11302E021495B1803218B4304339B18002102C26C
S11302F09342FCD11D4AFF211D4B8B439360FD3972
S113030090235B001B4AD1501B4AD3780325AB438F
S113031002242343D370D3780C27BB4308263343EA
S1130320D370164B987B302290432022104398734D
S1130330997BB943314399739A7BAA4322439A73B5
S11303400F4A536880210B4353600E4B98470E4B62
S11303509847FEE748240000000000203C040020E9
S1130360040000203C040020F004002000ED00E024
S113037000000000007000410050004100480041AE
S113038000400041B92100001105000010B54F20C4
S11303900A4B984700200A4B98474F20094B98472F
S11303A0094B9847094CA047094B1870094B9847CB
S11303B0A047094B1870094B984710BD310600003F
S11303C06506000089060000BD060000E506000081
S11303D060040020D1060000610400200D07000025
S11303E0F0B585B03B4B18784000C0B218703A4A5B
S11303F01378DB091370C018384B9847FC21890522
S1130400374B98470090374B18600D2302A94B7166
S1130410033B8B71344B1E788C4666440021334B6E
S1130420984700283DD13249009D281C2C4B984701
S1130430304CA0476421304B98478BB20193281C61
S1130440A0470400751E2D4F0A210198B84730318A
S11304502970B51E0A210198294B984780B20A21B8
S1130460B84730312970033E2E233370002C0CDD45
S1130470214D244F013E0A212000A847303131701C
S11304800A212000B847041EF4DC00210098174B11
S1130490984700281AD1072102A81B4B984705B09A
S11304A0F0BD1A49009D281C0D4B9847114CA047DC
S11304B06421114B98478BB201932B0080221206C2
S11304C0944663441800A0470400BBE7013E2D2373
S11304D03370E0E76004002061040020111700007D
S11304E05911000058040020000000202D0B0000CA
S11304F00000C842D1160000FD0A000029090000CE
S11305001D08000031090000E10700000000C8C216
S113051070B5084B984796208001074B98470748C9
S1130520074B9847074E084D084CB047A847084862
S1130530A047FAE715010000250700000050C34753
S1130540590500008D030000E1030000990200003A
S1130550B7A168007047000070B5011C244C2368E3
S11305600225AB43236023681C229343083A1343B8
S11305702360626880235B001343636023681D4A21
S11305801340236023681C4A1A4080235B041343EE
S113059023601A4B18681A4B98471A491A4B984704
S11305A01A4B98471A4A1B4B1B4EB0471B4B984794
S11305B0C0B21B4B187003211A4B9847C0B21A4B98
S11305C018704200E368FF210A401202174E3340BC
S11305D01343E360E3688B431843E06023681D43DF
S11305E02560638B3022934310221343638370BDD1
S11305F0000C0042FFFFFFF7FFFFFFFC0400002098
S1130600790D00000000204199130000451E0000F0
S11306109A9999999999E93FB1170000BD0B000087
S1130620C90400201D080000C8040020FF00FFFFCB
S11306300B494B6A4200D80AC002104348620A00C0
S1130640538B1B06FCD5137EDB07F9D5044A538B69
S11306505B07FCD4024AD3695B07FCD47047C046ED
S1130660000C00422823074AD054D3695B07FCD40A
S1130670044A538B9B07FCD4024A538B5B07FCD47C
S11306807047C046000C00424000012318430A4A48
S1130690536A4005400DDB0ADB0218435062D369FC
S11306A05B07FCD4044A538B5B07FCD40249022247
S11306B00B7E1342FCD07047000C0042024A516882
S11306C0024B0B4053607047000C0042FFFFFBFFDE
S11306D0034A51688023DB020B4353607047C046D2
S11306E0000C0042084AD3695B07FCD42823064A5D
S11306F0D05CC0B2D3695B07FCD4034902220B7EF1
S11307001342FCD07047C046000C0042044A5168B2
S1130710C0239B020B435360D3695B07FCD470472F
S1130720000C004270B580225201254B1A60254C02
S113073023680225AB43236023681C229343183AA1
S1130740134323602368204A1340236023681F4A0D
S11307501A4080235B031343236023681C4A13401D
S11307602360636807229343636022688023DB0568
S1130770134323602368174A1340236063684022AD
S113078093436360144B1A680001101A010C0004AF
S11307900023124EB04780B2A081626880239B027E
S11307A013436360626880235B0213436360A37D29
S11307B004221343A37523681D43256070BDC046FE
S11307C000E100E000140042FFFFFFEFFFFFCFFF56
S11307D0FFFFFCFFFFFFFFF0080000207D0B00007F
S11307E010B50D4B1B7EDB0700D410BD0029FCD0D7
S11307F004000139C9B201314018074A138D217828
S11308005B0A5B020B431385137E9B07FCD5013403
S11308108442F3D1E9E7C0460014004200224308B1
S11308208B4274D303098B425FD3030A8B4244D3B4
S1130830030B8B4228D3030C8B420DD3FF220902F6
S113084012BA030C8B4202D31212090265D0030BB5
S11308508B4219D300E0090AC30B8B4201D3CB03AB
S1130860C01A5241830B8B4201D38B03C01A5241ED
S1130870430B8B4201D34B03C01A5241030B8B42EF
S113088001D30B03C01A5241C30A8B4201D3CB02DA
S1130890C01A5241830A8B4201D38B02C01A5241BF
S11308A0430A8B4201D34B02C01A5241030A8B42C2
S11308B001D30B02C01A5241CDD2C3098B4201D3DA
S11308C0CB01C01A524183098B4201D38B01C01A58
S11308D0524143098B4201D34B01C01A52410309CF
S11308E08B4201D30B01C01A5241C3088B4201D37E
S11308F0CB00C01A524183088B4201D38B00C01A2B
S1130900524143088B4201D34B00C01A5241411A51
S113091000D20146524110467047FFE701B500205E
S113092000F0F0F802BDC0460029F7D076E7704722
S113093003460B437FD4002243088B4274D303093C
S11309408B425FD3030A8B4244D3030B8B4228D3DD
S1130950030C8B420DD3FF22090212BA030C8B4203
S113096002D31212090265D0030B8B4219D300E0A3
S1130970090AC30B8B4201D3CB03C01A5241830B28
S11309808B4201D38B03C01A5241430B8B4201D3D8
S11309904B03C01A5241030B8B4201D30B03C01A01
S11309A05241C30A8B4201D3CB02C01A5241830A7B
S11309B08B4201D38B02C01A5241430A8B4201D3AA
S11309C04B02C01A5241030A8B4201D30B02C01AD4
S11309D05241CDD2C3098B4201D3CB01C01A52413B
S11309E083098B4201D38B01C01A524143098B42C4
S11309F001D34B01C01A524103098B4201D30B01AD
S1130A00C01A5241C3088B4201D3CB00C01A5241D1
S1130A1083088B4201D38B00C01A524143088B4296
S1130A2001D34B00C01A5241411A00D2014652412F
S1130A30104670475DE0CA0F00D04942031000D34E
S1130A404042534000229C4603098B422DD3030AA3
S1130A508B4212D3FC22890112BA030A8B420CD3B3
S1130A60890192118B4208D3890192118B4204D3DC
S1130A7089013AD0921100E08909C3098B4201D35C
S1130A80CB01C01A524183098B4201D38B01C01A96
S1130A90524143098B4201D34B01C01A524103090D
S1130AA08B4201D30B01C01A5241C3088B4201D3BC
S1130AB0CB00C01A524183088B4201D38B00C01A69
S1130AC05241D9D243088B4201D34B00C01A524140
S1130AD0411A00D20146634652415B10104601D3CD
S1130AE04042002B00D54942704763465B1000D357
S1130AF0404201B5002000F005F802BD0029F8D0FD
S1130B0016E770477047C0468446081C6146FFE7F5
S1130B101FB500F0DFFA002801D40021C8421FBD30
S1130B2010B500F071FA4042013010BD10B500F06C
S1130B30D1FA002801DB002010BD012010BDC04601
S1130B4010B500F0C7FA002801DD002010BD012017
S1130B5010BDC04610B500F07DFA002801DC00206D
S1130B6010BD012010BDC04610B500F073FA002876
S1130B7001DA002010BD012010BDC046002B11D1A8
S1130B80002A0FD1002900D1002802D00021C94336
S1130B90081C07B4024802A14018029003BDC046D5
S1130BA065FFFFFF03B4684601B5029800F024F81E
S1130BB0019B9E4602B00CBC7047C04670B5002233
S1130BC00C4B04000D0001F0C3F9002804D12000EF
S1130BD0290001F003F970BD064B00222000290012
S1130BE000F0E6FD01F0FAF880231B069C46604401
S1130BF0F1E7C0460000E041F0B557464E46454691
S1130C00DE46E0B5040083B00D00924699468B425F
S1130C102FD82CD04946504601F0C2F929000600CD
S1130C20200001F0BDF9331A9846203B9B4600D5BD
S1130C3074E053465A4693401F005346424693403D
S1130C401E00AF4229D826D05B46A41BBD41002B11
S1130C5000DA79E0002200230092019301235A462E
S1130C6093400193012342469340009319E082424A
S1130C70D0D900220023009201930C9B002B01D0B9
S1130C801C605D600098019903B03CBC9046994695
S1130C90A246AB46F0BDA342D6D90022002300925F
S1130CA001934346002BE8D0FB0772081A434646DB
S1130CB07B080EE0AB4201D1A2420CD8A41A9D419C
S1130CC0012024196D410021013E24184D41002EBC
S1130CD006D0AB42EED9013E24196D41002EF8D165
S1130CE05B460098019900196941002B22DB2B0017
S1130CF05A46D3402A004446E2401C005B46150095
S1130D00002B2CDB26009E40330026004746BE40C5
S1130D103200801A994100900191AEE742462023A7
S1130D209B1A5246DA40414613004A468A4017004D
S1130D301F4382E7424620239B1A2A0046469A40D4
S1130D402300F3401343D5E74246202300219B1A96
S1130D500022009101920122DA40019282E7424688
S1130D60202326009B1ADE402F00B4469740664697
S1130D703B003343C9E7C046F0B557464E46DE460E
S1130D804546E0B544024300C60F83B00F1C640A15
S1130D901B0EB24653D0FF2B27D08022E400D2048E
S1130DA014437F22524290469844002399469B461E
S1130DB07D027800FB0F6D0A000E009324D0FF28FB
S1130DC046D080230021ED00DB041D437F384746D5
S1130DD0381A4F460F43BF00B9463300009A874F75
S1130DE053404A46BA5801939746002C4ED10823E3
S1130DF09946F7339846FD3B9B467D027800FB0FEE
S1130E006D0A000E0093DAD1002D26D100200121B5
S1130E103300009A7A4F53404246101A4A460A4316
S1130E209200BA581D009746009B2C009A468B46A8
S1130E305B46022B31D15346FF21002438E0002CBD
S1130E4017D1042399460023984601339B46AFE704
S1130E50FF20002D0BD10221DAE7280001F082F8EF
S1130E60431F9D4076235B42181A0021AFE70321FC
S1130E70ADE7200001F076F8431F9C4076235B42E7
S1130E801B1A9846002399469B4691E70C239946E2
S1130E90F3339846FC3B9B468AE7032B00D1A5E03D
S1130EA05546012B00D081E00123002100242B4072
S1130EB06402C905600ADB070843184303B03CBC5D
S1130EC090469946A246AB46F0BD80240023E40335
S1130ED0FF21EDE7FF210024EAE70123591A1B292A
S1130EE066DD019A134000210024E1E78023DB033F
S1130EF01C4238D01D4251D01C436402640A3300A2
S1130F00FF21D5E763016C01A3423BD21B260021DC
S1130F10013801251F0049005B00002F01DB9C42C2
S1130F2001D81B1B2943013E002EF3D11C00631E74
S1130F309C410C4301007F310029CEDD630704D0BE
S1130F400F232340042B00D00434230103D50100D4
S1130F502C4B80311C40FE290DDD0123019AFF2119
S1130F6013400024A4E78023DB031C436402640AC7
S1130F703300FF219CE70123019AA401640AC9B24A
S1130F80134095E71B1B1A260121C2E7009B8B46E1
S1130F909A4600244CE76302E5D500258024E40347
S1130FA02C436402640A009BFF2181E70195C1E799
S1130FB023002020CB40411A8C40611E8C411C43ED
S1130FC0630704D00F232340042B00D004346301AF
S1130FD005D50123019A01211340002468E7012368
S1130FE0019AA401640A1340002161E78023DB0312
S1130FF01C436402640A5346FF2159E75823000046
S113100098230000FFFFFFF770B5420045024E022F
S11310104C00C30F6D0A120E760A240EC90F01206C
S1131020FF2A06D0FF2C03D0A24201D1B54206D03C
S113103070BD002DFCD1FF2CFAD1002EF8D18B42CB
S113104006D00120002AF3D12800451EA841EFE76D
S11310500020EDE7F0B5420045024C02C30F480002
S11310606D0A120E640A000EC90FFF2A1ED0FF2853
S113107021D0002A0AD16E426E41F6B200280FD167
S1131080002C0DD10020002D09D005E0002801D14D
S1131090002C01D08B4211D0012158420843F0BDED
S11310A0002EF7D0012001390843F8E7002DDED0E7
S11310B002204042F3E7002CDBD0F9E78242EBDC6C
S11310C004DBA542E8D80020A542E8D20121581E3D
S11310D00843E4E7F0B542004D024C004602760AAC
S11310E0120EC30F6D0A240EC90FFF2A16D0FF2C4F
S11310F018D0002A0AD170427041C0B2002C15D019
S1131100002805D0012001390843F0BD002C13D07C
S1131110994214D001205B421843F6E70220002EC6
S1131120F3D1E4E70220002DEFD1E2E7002DE7D16F
S11311300020002EE9D0EDE7002DE9D1EAE7A24234
S113114006DCDFDBAE4203D80020AE42DAD3DCE7B4
S1131150012049420843D8E7F8B557464E4645466C
S1131160DE46E0B54702460088467F0A360EC40FC5
S1131170002E47D0FF2E24D0FB008027FF041F43FE
S1131180002399469A467F3E43465D025800DB0F92
S11311906D0A000E984643D0FF283BD0EB00802513
S11311A00022ED041D437F383618731C41469B46CC
S11311B04B46614013430F2B64D875489B00C358BA
S11311C09F46002F42D108239946063BFF269A46A4
S11311D0DAE74146022A28D0032A00D1CEE0012AC8
S11311E000D0ACE0114000200022CCB24002D20575
S11311F0400AE407104320433CBC90469946A2466B
S1131200AB46F8BD002F15D104239946033B0026B5
S11312109A46B9E7FF200222002DC5D00322C3E776
S1131220002D19D100200122BEE70124FF220C4029
S11312300020DBE7380000F095FE7626431F9F4030
S113124000237642361A99469A469DE70C2399461E
S1131250093BFF269A4697E7280000F083FE431FC8
S11312609D4076235B42181A00229DE780200024CB
S1131270C003FF22BAE73D005246ABE73D00210020
S11312805246A7E73B0C9C462A04120C2B0C140074
S1131290604665463F043F0C7C4342435D437B43C9
S11312A0270C9B18FF18BA4203D980235B029C4683
S11312B0654424043A04240C121993015C1EA341CE
S11312C03F0C920E7D191A43AD0115432B0104D531
S11312D001235E466A081D40154332007F32002A0E
S11312E025DD6B0704D00F232B40042B00D00435DD
S11312F02B0103D53200274B80321D40FE2A94DC9B
S11313000124A801400AD2B20C406FE78020C00338
S1131310074207D0054205D128434002400A44460B
S1131320FF2263E738434002400AFF225EE70124BC
S1131330A31A1B2B05DD0C400022002056E75E4655
S1131340CBE72A002020DA40C31A9D402B005D1E03
S1131350AB4113435A0704D00F221A40042A00D089
S113136004335A0104D5012401220C4000203DE736
S113137001249B01580A0C40002237E780200124F5
S1131380C00328434002400A0C40FF222EE7C04617
S1131390D8230000FFFFFFF7F0B54F46D646464678
S11313A04400C0B5C20F47024802400A844666465C
S11313B07B0A4800C90F9A46240E1500DB00000E74
S11313C08946F600FF2800D18FE001214F464F40A7
S11313D03900914266D0221A002A00DC9DE00028E0
S11313E03DD1002E00D18BE0511E002900D0B5E084
S11313F001249B1B5A0144D59B019F09380000F02E
S1131400B1FD05388740844200DD96E0041B3A00B4
S113141020200134E240041BA7403B005F1EBB4177
S1131420002413435A0704D00F221A40042A00D080
S113143004335A0127D50134FF2C00D179E001226D
S11314409B015B0AE4B22A405B02E405580AD20716
S1131450204310431CBC90469946A246F0BDFF2C85
S1131460E0D08021C9040E431B2A7BDC31002020FC
S1131470D140821A9640721E96410E439B1B5A011C
S1131480BAD45A07D0D10122DF082A40FF2C33D125
S1131490002F00D1A8E08023DB033B435B025B0AFF
S11314A0FF24D1E7211A00294CDD00282AD0FF2C83
S11314B0B8D08020C00406431B2900DDAFE0300013
S11314C02027C840791A8E40711E8E4106439B190D
S11314D05901D6D50134FF2C00D185E001227A4987
S11314E01A405B080B4013439CE7002E00D070E7C2
S11314F06BE73B1EC5D100227B025B0AE4B2A3E783
S113150014008FE7002E4DD0481E002857D19B1998
S113151001245A01B5D50224E0E7002A25D1621C32
S1131520D2B2012A72DD9F1B7A0135D5F71A0D005C
S113153064E7012200232A4086E73B00634A241A19
S113154013406FE700296CD1611CC8B201284EDD3D
S1131550FF2949D09B195B080C0063E7FF2A41D09F
S11315600A0081E701269B1B89E7002C1CD0FF2879
S113157021D08024E404524223431B2A00DD96E058
S11315801C002025D440AA1A93405A1E9341234399
S1131590F31A04000D002DE7002F00D02EE70022DF
S11315A00024A9E70C003DE7002B58D0D243002AC1
S11315B0EED0FF28E1D13300FF240D0032E7FF29EC
S11315C010D0010078E7002B6ED0FF24002E00D14C
S11315D028E780225146D203114203D061461142CA
S11315E000D13300FF241DE7FF2400232CE7002C47
S11315F0E9D1002B63D0002E00D113E79B195A01C7
S113160000D43EE7314A0C0013400BE7002C1ED1F6
S1131610002B2FD1002E4FD033000D0002E70126FE
S113162055E7002C1FD1002B43D0C94300290BD010
S1131630FF2839D01B2944DC1C002027CC40791A10
S11316408B40591E8B4123439B19040040E7002B18
S11316501AD1002E24D180270022FF031BE7330078
S113166004000D00DEE6FF281ED08024E404494275
S11316702343DFE7002E00D1D4E69F1B7A0100D478
S113168037E7F31A0D00CDE6FF24002E00D1C9E69A
S113169080225046D2031042A4D060461042A1D109
S11316A033000D00FF24BDE63300FF24BAE6012316
S11316B06EE733000400B5E6002700221CE7330080
S11316C0B0E60123C0E7C046FFFFFF7DFFFFFFFB3D
S11316D041024300C20F490A1B0E00207E2B0DDD80
S11316E09D2B0CDC802000040143952B0ADC962002
S11316F0C31AD9404842002A00D108007047034B5E
S1131700D018FBE7963B9940F4E7C046FFFFFF7F04
S113171070B5002830D0C317C4185C40C50F200032
S113172000F020FC9E231B1A962B0DDC9622D21A65
S113173094402A006402640ADBB26402DB05600A96
S1131740D2071843104370BD992B19DC9922D21A81
S1131750002A29DD94402200144C1440510704D07F
S11317600F210A40042A00D00434620113D4A401D6
S1131770640ADBB22A00E0E7002200230024DCE74D
S113178005222100121AD140B922D21A9440621EB5
S113179094410C43DAE7054B2A001C409F23A40123
S11317A01B1A640ADBB2C8E72200D5E7FFFFFFFB80
S11317B0F0B54646D6464F460C03C0B5CD0F4E0095
S11317C0610A440F0C43C1005800400D84468A4608
S11317D00F001903500F490A0143C648760DA84665
S11317E0DB0FD200844500D1D8E001204340AB4256
S11317F000D1A6E06046351A002D00DC05E1002882
S113180010D10B00134300D1D7E06B1E002B00D086
S11318104BE153469F1ABA458041641A4042241A48
S113182001261EE0B34B9E4248D080231B0419437B
S1131830382D00DD19E11F2D00DD4CE120230F00C0
S11318405B1B10009A409F40E840531E9A41E940B8
S1131850074317435346DF1B611ABA45A441644248
S11318600C1B230200D4C5E06402650A002D00D1DC
S1131870F6E0280000F076FB0300083B1F2B00DD98
S1131880E9E020223C00D21A9D40D4409F402543E9
S11318909E4200DDDBE09E1B731C1F2B00DD0AE172
S11318A020223800D21A290097402C009140D840B9
S11318B07A1E9741DC40002601430F437B0709D081
S11318C00F233B40042B05D03B1DBB42BF417F424D
S11318D0E4191F00230225D5864B01369E4200D110
S11318E0AFE0854B01251C4043466207FF086402B4
S11318F076051743240B760D1D4000212403230B8A
S11319000C0D7E4A24051C431440330523435B001D
S1131910ED075B082B43380019001CBC9046994620
S1131920A246F0BD012543466207FF081743E408B9
S11319301D40704B9E4236D024037605240B760D51
S1131940DBE76346F31A002B00DC94E060460028D2
S113195035D068488642B1D080273F043943382BBC
S113196000DCFDE00A43170000217A1E974157442A
S113197057458041091944420C1923023AD55D4B5D
S113198001369E4200D14BE101225B4B1C407B0897
S113199017401F43E207174364088FE7080010430A
S11319A000D024E721E723003B4300D1B9E18022A2
S11319B0120314432403240B9FE72E007EE7080040
S11319C0104300D1CAE0581E8446002800D0E7E046
S11319D0524452458041641840422418170001269D
S11319E0230207D50226CFE764462C4300D1B3E196
S11319F02C0067467B0700D062E76307FF081F439C
S1131A0001254346E4081D4093E7002D78D1751C59
S1131A106D056D0D012D00DCF2E05046801A824503
S1131A20BF41651A7F42ED1B8446280200D48CE036
S1131A305046171ABA4292410C1B5542651B9846F0
S1131A4014E70125434600241D40002755E72A4C8E
S1131A50F61A2C4032E73D0028388540002717E766
S1131A60380000F07FFA203006E70A43170000210F
S1131A707A1E9741EEE6002B00D0E5E0731C9C46ED
S1131A805B055B0D012B00DC9FE01A4B9C4500D1EC
S1131A90C5E0524452458041641840422418E70787
S1131AA0520817436408664608E71248854200D185
S1131AB085E01D00BCE629001F3EF140202B00D12B
S1131AC07FE04022D31A9D402F437D1EAF41002466
S1131AD00F4300268EE72B000F00203BDF40202D14
S1131AE071D040235D1BA9400A43511E8A41002145
S1131AF01743AFE6FF070000FFFF7FFFFFFF0F80E4
S1131B00002E3ED0B34EB44545D0802636046D42F7
S1131B103443382D00DDA8E01F2D00DD1FE1202611
S1131B2027005046761BB740E84007435046B04074
S1131B30461EB041EC403843171ABA4292410C1B7E
S1131B405242A41A664698468BE6644667462C437E
S1131B5000D08BE6002500260027EAE61E00ADE64D
S1131B601F2B60DC2027F81A0F00844687401000E2
S1131B70D840074360468240501E8241D9401743F3
S1131B80F5E626005046064305D0ED43002DD3D09C
S1131B90904EB445BDD10C001700664698468DE6BC
S1131BA08C4883420BD06346D9E6002D00D096E0E2
S1131BB00800104300D1E2E00C0017009846854E5F
S1131BC07CE6002580E700218EE72300504603438E
S1131BD0002E00D0A8E0002B00D1DEE00B00134360
S1131BE000D16BE6524452458041641840422418A7
S1131BF01700230200D4FDE6774B66461C405DE6E1
S1131C00250050460543002ECFD1002D4FD10C00A6
S1131C10144300D1A0E00C00170098464EE6664637
S1131C200024002785E61F000800203FF840070035
S1131C30202B00D18EE04020C31A99400A43511E44
S1131C408A410021174392E6002E14D12600504603
S1131C50064362D0DB43002B5CD187189742924144
S1131C6064185242A418664687E650462043441E30
S1131C70A041002460E7574EB4454ED08026360478
S1131C805B423443382B00DD7FE01F2B00DD8BE00B
S1131C90202627005046F61AB740D840074350463E
S1131CA0B040461EB0410743DC40BF18D6E70D00E4
S1131CB0154300D102E65046801A8245BF41651A99
S1131CC07F42ED1B8446280200D48DE65046171A45
S1131CD0BA4292410C1B5242A41A9846EEE50D00FA
S1131CE0154300D16BE750466707C00807438020BF
S1131CF0E4080003044207D0CD08054204D12C00B7
S1131D009846D70849070F437B0FE4001C43FF00A4
S1131D10304ED3E52F4EB445B4D10C0017006646BF
S1131D20CCE500270024E8E5002B39D00B00134351
S1131D3000D144E7C008670707438020E408000394
S1131D400442E1D0CB080342DED1D70849070F4350
S1131D501C00D9E7002171E700250027E9E52E00E2
S1131D602700203EF740202D2FD04026751BAC4085
S1131D7050462043441EA04100243843DCE680241E
S1131D8000252403134E0027D3E5504620430700C3
S1131D90781E87410024BF1860E70C0017008DE50A
S1131DA00C0017000B4E89E51E002700203EF7406B
S1131DB0202B0CD04026F31A9C4050462043441E4E
S1131DC0A04107430024BF1848E70024D0E70024BB
S1131DD0F3E7C046FF070000FFFF7FFF30B5134D58
S1131DE00A034B00120B5B0DC90F0024AB4210DD3C
S1131DF00F4CA3420FDC80240E4D64032243ED1AE2
S1131E001F2D0BDD0C48C31ADA405442002900D1BF
S1131E101400200030BD094BCC18FAE7084CE84008
S1131E20A44663449A400243EFE7C046FE03000021
S1131E301D0400003304000013040000FFFFFF7FB3
S1131E40EDFBFFFF4100090E4B1C70B5DBB24602EF
S1131E50750AC40F012B14DDE0239B006D07360BBC
S1131E60CB1800210A0D280012051C4D32435B05D6
S1131E702A405B0813435B00E4075B082343190013
S1131E8070BD002914D1002D1ED0280000F06AF87E
S1131E900A281CDC0B232A001B1ADA400300153322
S1131EA09D400F4B12031B1A5B05160B5B0DD8E705
S1131EB0002D06D0320B802636036D071643094BDE
S1131EC0CFE7084B0026CCE700230026C9E7030030
S1131ED02A000B3B9A400025E3E7C046FFFF0F8032
S1131EE089030000FF0700008446101C62468C46EC
S1131EF0191C634600E0C0461FB500F0FBF800283B
S1131F0001D40021C8421FBD10B500F055F840426D
S1131F10013010BD10B500F0EDF8002801DB002001
S1131F2010BD012010BDC04610B500F0E3F8002834
S1131F3001DD002010BD012010BDC04610B500F029
S1131F4075F8002801DC002010BD012010BDC0463A
S1131F5010B500F06BF8002801DA002010BD012054
S1131F6010BDC0461C2101231B04984201D3000C60
S1131F7010391B0A984201D3000A08391B099842F8
S1131F8001D30009043902A2105C40187047C0460E
S1131F90040302020101010100000000000000002E
S1131FA010B5002903D1FFF7DDFF203002E0081C43
S1131FB0FFF7D8FF10BDC046F0B54F464646D6469B
S1131FC05C00C0B51F03DB0F9A46174B0E034D0090
S1131FD084468046360B6D0DC90F91463F0B640D48
S1131FE001209D4208D09C4201D0A5420BD01CBCCC
S1131FF090469946A246F0BD63463343F7D1AC42BE
S1132000F5D13A43F3D10120BE42F0D1C845EED117
S1132010514507D0002DEAD163461E433000461EC9
S1132020B041E4E70020E2E7FF070000F0B54546D1
S1132030DE4657464E46E0B51F033D0B2C4F0E03BC
S11320404C00AB465D008446360B640DC90F9046C8
S11320506D0DDB0FBC422AD0254FBD422DD0002C84
S11320600FD130430700814678427841C0B2002D39
S113207017D15F463A4314D14B460020002B0AD0B7
S113208006E0002D02D15846024301D0994218D0EF
S11320904842012108433CBC90469946A246AB46BF
S11320A0F0BD0028F2D00120013B1843F3E73700CC
S11320B00743D1D002204042EDE75F461743CED01C
S11320C0F8E7AC42E4DC03DA481E01210843E2E706
S11320D05E45DDD806D000205E45DCD20123481ED3
S11320E01843D8E7C445D3D80020C445F6D3D2E773
S11320F0FF070000F0B54E464546DE4657465C00F5
S1132100E0B51F03DB0F99462A4B0E034D00C90FA0
S11321108446360B6D0D8B4690463F0B640D9D42F5
S113212020D0244B9C4222D0002D12D13043434274
S11321304341DBB2002C1FD0002B0CD04B460120B6
S1132140013B034318003CBC90469946A246AB466B
S1132150F0BD002C16D0CB4517D05B465942012365
S11321600B43EFE7310002230143EBD1D9E73900F8
S113217002231143E6D1D7E73A43DDD100230028F7
S1132180E0D0EAE73A43E6D1E7E7A542E5DC05DB40
S1132190BE42E2D807D00023BE42D3D2594601231F
S11321A001390B43CEE7C445D7D80023C445F5D342
S11321B0C8E7C046FF07000070B50D4E0D4D002462
S11321C0AD1BAD1005D0A300F35801349847A542C8
S11321D0F9D100F023F9084E084D0024AD1BAD10D1
S11321E005D0A300F35801349847A542F9D170BD36
S11321F028240000282400002824000030240000A3
S1132200034B10B5002B02D0024800F005F810BDB6
S1132210000000002922000010B501000023002264
S1132220002000F01FF810BD70B5094B094CE41AEA
S1132230A41009D0084AA518AD00ED182B68013C7C
S11322409847043D002CF9D100F0F2F870BDC04667
S11322503C24000040240000FFFFFF3F7047C046BD
S11322607047C046F0B54E464546DE465746E0B593
S1132270364D83B00600286898460F009146FFF754
S1132280EDFF334B1C68A4235B00E058002852D0B8
S113229043681F2B13DC5A1C0192002E28D1019A8B
S11322A002339B0042601F502868FFF7D9FF0020CB
S11322B003B03CBC90469946A246AB46F0BD254BC4
S11322C0002B3DD0C820400000E000BF002837D0DC
S11322D0A42200235200A15843600160A050403260
S11322E0835004328350013301930023002ED6D04F
S11322F09A00924682444A46882154466250C42237
S11323005200914681444A468739994012688B4667
S11323100A4394464A46614611608422414652006B
S1132320A150022EBBD102005C468D32FF321168EF
S11323300C431460B3E720004D30FF30E050A7E7B2
S11323402868FFF78DFF01204042B1E738040020E0
S11323501824000000000000040F0000D40E000048
S1132360E60E0000280E0000E60E0000CA0E000073
S1132370E60E0000280E0000D40E0000D40E00006B
S1132380CA0E0000280E0000300E0000300E0000BF
S1132390300E0000EC0E0000D40E0000D40E00003D
S11323A0A80E00008C0F0000A80E0000CA0E00004A
S11323B0A80E00008C0F0000D40E0000D40E000004
S11323C0CA0E00008C0F0000300E0000300E00001A
S11323D0300E0000960F000084120000D41100009B
S11323E0D4110000D2110000761200007612000011
S11323F06C120000D2110000761200006C12000072
S113240076120000D21100007C1200007C12000041
S11324107C1200000C13000010000020F8B5C04628
S1132420F8BC08BC9E46704701220000DD00000095
S1132430F8B5C046F8BC08BC9E467047B50000001D
S10B2440B8E7FF7F0100000072
S1132448050000000024F44A006CDC0200000000CF
S113245800000000FC02002064030020CC030020DC
S11324680000000000000000000000000000000060
S11324780000000000000000000000000000000050
S11324880000000000000000000000000000000040
S11324980000000000000000000000000000000030
S11324A80000000000000000000000000000000020
S11324B80000000000000000000000000000000010
S11324C80000000000000000000000000000000000
S11324D800000000000000000000000000000000F0
S11324E800000000000000000000000000000000E0
S11324F800000000000000000100000000000000CF
S11325080E33CDAB34126DE6ECDE05000B00000093
S113251800000000000000000000000000000000AF
S1132528000000000000000000000000000000009F
S1132538000000000000000000000000000000008F
S1132548000000000000000000000000000000007F
S10F28780000000000000000CC04002060
S9030000FC
